{"abi":[{"type":"constructor","inputs":[{"name":"_token","type":"address","internalType":"address"},{"name":"_treasury","type":"address","internalType":"address"}],"stateMutability":"nonpayable"},{"type":"function","name":"MIN_TOKEN_GATE","inputs":[],"outputs":[{"name":"","type":"uint256","internalType":"uint256"}],"stateMutability":"view"},{"type":"function","name":"REGISTRATION_FEE","inputs":[],"outputs":[{"name":"","type":"uint256","internalType":"uint256"}],"stateMutability":"view"},{"type":"function","name":"nextId","inputs":[],"outputs":[{"name":"","type":"uint256","internalType":"uint256"}],"stateMutability":"view"},{"type":"function","name":"paused","inputs":[],"outputs":[{"name":"","type":"bool","internalType":"bool"}],"stateMutability":"view"},{"type":"function","name":"recipes","inputs":[{"name":"","type":"uint256","internalType":"uint256"}],"outputs":[{"name":"outcome","type":"string","internalType":"string"},{"name":"cid","type":"string","internalType":"string"},{"name":"successBps","type":"uint256","internalType":"uint256"},{"name":"costUsd","type":"uint256","internalType":"uint256"},{"name":"author","type":"address","internalType":"address"},{"name":"isGolden","type":"bool","internalType":"bool"},{"name":"rType","type":"uint8","internalType":"enum SynthesisRegistry.RecipeType"}],"stateMutability":"view"},{"type":"function","name":"register","inputs":[{"name":"_outcome","type":"string","internalType":"string"},{"name":"_cid","type":"string","internalType":"string"},{"name":"_successBps","type":"uint256","internalType":"uint256"},{"name":"_costUsd","type":"uint256","internalType":"uint256"},{"name":"_rType","type":"uint8","internalType":"enum SynthesisRegistry.RecipeType"}],"outputs":[],"stateMutability":"nonpayable"},{"type":"function","name":"synlToken","inputs":[],"outputs":[{"name":"","type":"address","internalType":"contract ISYNL"}],"stateMutability":"view"},{"type":"function","name":"treasury","inputs":[],"outputs":[{"name":"","type":"address","internalType":"address"}],"stateMutability":"view"}],"bytecode":{"object":"0x60c060405234801561000f575f5ffd5b50604051610a95380380610a9583398101604081905261002e91610060565b6001600160a01b039182166080521660a052610091565b80516001600160a01b038116811461005b575f5ffd5b919050565b5f5f60408385031215610071575f5ffd5b61007a83610045565b915061008860208401610045565b90509250929050565b60805160a0516109cf6100c65f395f818161012f015261040d01525f818160bd01528181610343015261044401526109cf5ff3fe608060405234801561000f575f5ffd5b5060043610610085575f3560e01c806361d027b31161005857806361d027b31461012a57806364b4f751146101515780639501bdc214610161578063b734dcee14610176575f5ffd5b8063443c227c14610089578063451bba72146100b85780635c975abb146100f757806361b8ce8c14610114575b5f5ffd5b61009c6100973660046105f9565b610187565b6040516100af9796959493929190610652565b60405180910390f35b6100df7f000000000000000000000000000000000000000000000000000000000000000081565b6040516001600160a01b0390911681526020016100af565b6001546101049060ff1681565b60405190151581526020016100af565b61011c5f5481565b6040519081526020016100af565b6100df7f000000000000000000000000000000000000000000000000000000000000000081565b61011c681b1ae4d6e2ef50000081565b61017461016f36600461076b565b6102e1565b005b61011c69021e19e0c9bab240000081565b60026020525f90815260409020805481906101a1906107f9565b80601f01602080910402602001604051908101604052809291908181526020018280546101cd906107f9565b80156102185780601f106101ef57610100808354040283529160200191610218565b820191905f5260205f20905b8154815290600101906020018083116101fb57829003601f168201915b50505050509080600101805461022d906107f9565b80601f0160208091040260200160405190810160405280929190818152602001828054610259906107f9565b80156102a45780601f1061027b576101008083540402835291602001916102a4565b820191905f5260205f20905b81548152906001019060200180831161028757829003601f168201915b50505060028401546003850154600490950154939490939092506001600160a01b038116915060ff600160a01b8204811691600160a81b90041687565b60015460ff16156103225760405162461bcd60e51b815260206004820152600660248201526514105554d15160d21b60448201526064015b60405180910390fd5b6040516370a0823160e01b815233600482015269021e19e0c9bab2400000907f00000000000000000000000000000000000000000000000000000000000000006001600160a01b0316906370a0823190602401602060405180830381865afa158015610390573d5f5f3e3d5ffd5b505050506040513d601f19601f820116820180604052508101906103b49190610831565b10156103f05760405162461bcd60e51b815260206004820152600b60248201526a11d0551157d313d0d2d15160aa1b6044820152606401610319565b6040516323b872dd60e01b81523360048201526001600160a01b037f000000000000000000000000000000000000000000000000000000000000000081166024830152681b1ae4d6e2ef50000060448301527f000000000000000000000000000000000000000000000000000000000000000016906323b872dd906064016020604051808303815f875af115801561048a573d5f5f3e3d5ffd5b505050506040513d601f19601f820116820180604052508101906104ae9190610848565b6104e55760405162461bcd60e51b815260206004820152600860248201526711915157d190525360c21b6044820152606401610319565b6040518060e00160405280868152602001858152602001848152602001838152602001336001600160a01b031681526020015f151581526020018260018111156105315761053161063e565b90525f805481526002602052604090208151819061054f90826108ba565b506020820151600182019061056490826108ba565b506040820151600282015560608201516003820155608082015160048201805460a08501511515600160a01b026001600160a81b03199091166001600160a01b03909316929092179190911780825560c0840151919060ff60a81b1916600160a81b8360018111156105d8576105d861063e565b0217905550505f80549150806105ed83610975565b91905055505050505050565b5f60208284031215610609575f5ffd5b5035919050565b5f81518084528060208401602086015e5f602082860101526020601f19601f83011685010191505092915050565b634e487b7160e01b5f52602160045260245ffd5b60e081525f61066460e083018a610610565b8281036020840152610676818a610610565b60408401899052606084018890526001600160a01b038716608085015285151560a0850152915050600283106106ba57634e487b7160e01b5f52602160045260245ffd5b8260c083015298975050505050505050565b634e487b7160e01b5f52604160045260245ffd5b5f82601f8301126106ef575f5ffd5b813567ffffffffffffffff811115610709576107096106cc565b604051601f8201601f19908116603f0116810167ffffffffffffffff81118282101715610738576107386106cc565b60405281815283820160200185101561074f575f5ffd5b816020850160208301375f918101602001919091529392505050565b5f5f5f5f5f60a0868803121561077f575f5ffd5b853567ffffffffffffffff811115610795575f5ffd5b6107a1888289016106e0565b955050602086013567ffffffffffffffff8111156107bd575f5ffd5b6107c9888289016106e0565b94505060408601359250606086013591506080860135600281106107eb575f5ffd5b809150509295509295909350565b600181811c9082168061080d57607f821691505b60208210810361082b57634e487b7160e01b5f52602260045260245ffd5b50919050565b5f60208284031215610841575f5ffd5b5051919050565b5f60208284031215610858575f5ffd5b81518015158114610867575f5ffd5b9392505050565b601f8211156108b557805f5260205f20601f840160051c810160208510156108935750805b601f840160051c820191505b818110156108b2575f815560010161089f565b50505b505050565b815167ffffffffffffffff8111156108d4576108d46106cc565b6108e8816108e284546107f9565b8461086e565b6020601f82116001811461091a575f83156109035750848201515b5f19600385901b1c1916600184901b1784556108b2565b5f84815260208120601f198516915b828110156109495787850151825560209485019460019092019101610929565b508482101561096657868401515f19600387901b60f8161c191681555b50505050600190811b01905550565b5f6001820161099257634e487b7160e01b5f52601160045260245ffd5b506001019056fea2646970667358221220badbe7d9d9aee58415721101c5a3bf6e26b2fb44a4fde1b2b093fa58d67406ff64736f6c634300081f0033","linkReferences":{}},"methodIdentifiers":{"MIN_TOKEN_GATE()":"b734dcee","REGISTRATION_FEE()":"64b4f751","nextId()":"61b8ce8c","paused()":"5c975abb","recipes(uint256)":"443c227c","register(string,string,uint256,uint256,uint8)":"9501bdc2","synlToken()":"451bba72","treasury()":"61d027b3"},"id":22}