{"abi":[{"type":"constructor","inputs":[],"stateMutability":"nonpayable"},{"type":"function","name":"DECAY_BPS","inputs":[],"outputs":[{"name":"","type":"uint256","internalType":"uint256"}],"stateMutability":"view"},{"type":"function","name":"DEFAULT_ADMIN_ROLE","inputs":[],"outputs":[{"name":"","type":"bytes32","internalType":"bytes32"}],"stateMutability":"view"},{"type":"function","name":"GENESIS_WEEKLY_RELEASE","inputs":[],"outputs":[{"name":"","type":"uint256","internalType":"uint256"}],"stateMutability":"view"},{"type":"function","name":"GROWTH_CONTROLLER_ROLE","inputs":[],"outputs":[{"name":"","type":"bytes32","internalType":"bytes32"}],"stateMutability":"view"},{"type":"function","name":"LEDGER_ROLE","inputs":[],"outputs":[{"name":"","type":"bytes32","internalType":"bytes32"}],"stateMutability":"view"},{"type":"function","name":"MAX_SUPPLY","inputs":[],"outputs":[{"name":"","type":"uint256","internalType":"uint256"}],"stateMutability":"view"},{"type":"function","name":"TRANSITION_WINDOW","inputs":[],"outputs":[{"name":"","type":"uint256","internalType":"uint256"}],"stateMutability":"view"},{"type":"function","name":"WEEK_DURATION","inputs":[],"outputs":[{"name":"","type":"uint256","internalType":"uint256"}],"stateMutability":"view"},{"type":"function","name":"allowance","inputs":[{"name":"owner","type":"address","internalType":"address"},{"name":"spender","type":"address","internalType":"address"}],"outputs":[{"name":"","type":"uint256","internalType":"uint256"}],"stateMutability":"view"},{"type":"function","name":"appointKeyFigure","inputs":[{"name":"_account","type":"address","internalType":"address"}],"outputs":[],"stateMutability":"nonpayable"},{"type":"function","name":"approve","inputs":[{"name":"spender","type":"address","internalType":"address"},{"name":"value","type":"uint256","internalType":"uint256"}],"outputs":[{"name":"","type":"bool","internalType":"bool"}],"stateMutability":"nonpayable"},{"type":"function","name":"balanceOf","inputs":[{"name":"account","type":"address","internalType":"address"}],"outputs":[{"name":"","type":"uint256","internalType":"uint256"}],"stateMutability":"view"},{"type":"function","name":"calculateWeeklyLimit","inputs":[],"outputs":[{"name":"","type":"uint256","internalType":"uint256"}],"stateMutability":"view"},{"type":"function","name":"councilSize","inputs":[],"outputs":[{"name":"","type":"uint256","internalType":"uint256"}],"stateMutability":"view"},{"type":"function","name":"currentWeekMinted","inputs":[],"outputs":[{"name":"","type":"uint256","internalType":"uint256"}],"stateMutability":"view"},{"type":"function","name":"decimals","inputs":[],"outputs":[{"name":"","type":"uint8","internalType":"uint8"}],"stateMutability":"view"},{"type":"function","name":"deploymentTimestamp","inputs":[],"outputs":[{"name":"","type":"uint256","internalType":"uint256"}],"stateMutability":"view"},{"type":"function","name":"distributeGrowth","inputs":[{"name":"_recipients","type":"address[]","internalType":"address[]"},{"name":"_amounts","type":"uint256[]","internalType":"uint256[]"}],"outputs":[],"stateMutability":"nonpayable"},{"type":"function","name":"finalizeFounderTransition","inputs":[],"outputs":[],"stateMutability":"nonpayable"},{"type":"function","name":"getRoleAdmin","inputs":[{"name":"role","type":"bytes32","internalType":"bytes32"}],"outputs":[{"name":"","type":"bytes32","internalType":"bytes32"}],"stateMutability":"view"},{"type":"function","name":"grantRole","inputs":[{"name":"role","type":"bytes32","internalType":"bytes32"},{"name":"account","type":"address","internalType":"address"}],"outputs":[],"stateMutability":"nonpayable"},{"type":"function","name":"hasRole","inputs":[{"name":"role","type":"bytes32","internalType":"bytes32"},{"name":"account","type":"address","internalType":"address"}],"outputs":[{"name":"","type":"bool","internalType":"bool"}],"stateMutability":"view"},{"type":"function","name":"isKeyFigure","inputs":[{"name":"","type":"address","internalType":"address"}],"outputs":[{"name":"","type":"bool","internalType":"bool"}],"stateMutability":"view"},{"type":"function","name":"lastResetTimestamp","inputs":[],"outputs":[{"name":"","type":"uint256","internalType":"uint256"}],"stateMutability":"view"},{"type":"function","name":"membershipVotes","inputs":[{"name":"","type":"address","internalType":"address"}],"outputs":[{"name":"","type":"uint256","internalType":"uint256"}],"stateMutability":"view"},{"type":"function","name":"mintHuntReward","inputs":[{"name":"_hunter","type":"address","internalType":"address"},{"name":"_dataHash","type":"bytes32","internalType":"bytes32"}],"outputs":[],"stateMutability":"nonpayable"},{"type":"function","name":"name","inputs":[],"outputs":[{"name":"","type":"string","internalType":"string"}],"stateMutability":"view"},{"type":"function","name":"renounceRole","inputs":[{"name":"role","type":"bytes32","internalType":"bytes32"},{"name":"callerConfirmation","type":"address","internalType":"address"}],"outputs":[],"stateMutability":"nonpayable"},{"type":"function","name":"revokeRole","inputs":[{"name":"role","type":"bytes32","internalType":"bytes32"},{"name":"account","type":"address","internalType":"address"}],"outputs":[],"stateMutability":"nonpayable"},{"type":"function","name":"supportsInterface","inputs":[{"name":"interfaceId","type":"bytes4","internalType":"bytes4"}],"outputs":[{"name":"","type":"bool","internalType":"bool"}],"stateMutability":"view"},{"type":"function","name":"symbol","inputs":[],"outputs":[{"name":"","type":"string","internalType":"string"}],"stateMutability":"view"},{"type":"function","name":"totalMinted","inputs":[],"outputs":[{"name":"","type":"uint256","internalType":"uint256"}],"stateMutability":"view"},{"type":"function","name":"totalSupply","inputs":[],"outputs":[{"name":"","type":"uint256","internalType":"uint256"}],"stateMutability":"view"},{"type":"function","name":"transfer","inputs":[{"name":"to","type":"address","internalType":"address"},{"name":"value","type":"uint256","internalType":"uint256"}],"outputs":[{"name":"","type":"bool","internalType":"bool"}],"stateMutability":"nonpayable"},{"type":"function","name":"transferFrom","inputs":[{"name":"from","type":"address","internalType":"address"},{"name":"to","type":"address","internalType":"address"},{"name":"value","type":"uint256","internalType":"uint256"}],"outputs":[{"name":"","type":"bool","internalType":"bool"}],"stateMutability":"nonpayable"},{"type":"function","name":"usedHashes","inputs":[{"name":"","type":"bytes32","internalType":"bytes32"}],"outputs":[{"name":"","type":"bool","internalType":"bool"}],"stateMutability":"view"},{"type":"function","name":"voteForNewMember","inputs":[{"name":"_candidate","type":"address","internalType":"address"}],"outputs":[],"stateMutability":"nonpayable"},{"type":"event","name":"Approval","inputs":[{"name":"owner","type":"address","indexed":true,"internalType":"address"},{"name":"spender","type":"address","indexed":true,"internalType":"address"},{"name":"value","type":"uint256","indexed":false,"internalType":"uint256"}],"anonymous":false},{"type":"event","name":"GrowthDistribution","inputs":[{"name":"controller","type":"address","indexed":true,"internalType":"address"},{"name":"totalAmount","type":"uint256","indexed":false,"internalType":"uint256"},{"name":"count","type":"uint256","indexed":false,"internalType":"uint256"}],"anonymous":false},{"type":"event","name":"HuntRewardMinted","inputs":[{"name":"hunter","type":"address","indexed":true,"internalType":"address"},{"name":"dataHash","type":"bytes32","indexed":true,"internalType":"bytes32"},{"name":"amount","type":"uint256","indexed":false,"internalType":"uint256"}],"anonymous":false},{"type":"event","name":"KeyFigureAppointed","inputs":[{"name":"account","type":"address","indexed":true,"internalType":"address"}],"anonymous":false},{"type":"event","name":"KeyFigureProposed","inputs":[{"name":"candidate","type":"address","indexed":true,"internalType":"address"},{"name":"proposer","type":"address","indexed":true,"internalType":"address"}],"anonymous":false},{"type":"event","name":"RoleAdminChanged","inputs":[{"name":"role","type":"bytes32","indexed":true,"internalType":"bytes32"},{"name":"previousAdminRole","type":"bytes32","indexed":true,"internalType":"bytes32"},{"name":"newAdminRole","type":"bytes32","indexed":true,"internalType":"bytes32"}],"anonymous":false},{"type":"event","name":"RoleGranted","inputs":[{"name":"role","type":"bytes32","indexed":true,"internalType":"bytes32"},{"name":"account","type":"address","indexed":true,"internalType":"address"},{"name":"sender","type":"address","indexed":true,"internalType":"address"}],"anonymous":false},{"type":"event","name":"RoleRevoked","inputs":[{"name":"role","type":"bytes32","indexed":true,"internalType":"bytes32"},{"name":"account","type":"address","indexed":true,"internalType":"address"},{"name":"sender","type":"address","indexed":true,"internalType":"address"}],"anonymous":false},{"type":"event","name":"Transfer","inputs":[{"name":"from","type":"address","indexed":true,"internalType":"address"},{"name":"to","type":"address","indexed":true,"internalType":"address"},{"name":"value","type":"uint256","indexed":false,"internalType":"uint256"}],"anonymous":false},{"type":"error","name":"AccessControlBadConfirmation","inputs":[]},{"type":"error","name":"AccessControlUnauthorizedAccount","inputs":[{"name":"account","type":"address","internalType":"address"},{"name":"neededRole","type":"bytes32","internalType":"bytes32"}]},{"type":"error","name":"ERC20InsufficientAllowance","inputs":[{"name":"spender","type":"address","internalType":"address"},{"name":"allowance","type":"uint256","internalType":"uint256"},{"name":"needed","type":"uint256","internalType":"uint256"}]},{"type":"error","name":"ERC20InsufficientBalance","inputs":[{"name":"sender","type":"address","internalType":"address"},{"name":"balance","type":"uint256","internalType":"uint256"},{"name":"needed","type":"uint256","internalType":"uint256"}]},{"type":"error","name":"ERC20InvalidApprover","inputs":[{"name":"approver","type":"address","internalType":"address"}]},{"type":"error","name":"ERC20InvalidReceiver","inputs":[{"name":"receiver","type":"address","internalType":"address"}]},{"type":"error","name":"ERC20InvalidSender","inputs":[{"name":"sender","type":"address","internalType":"address"}]},{"type":"error","name":"ERC20InvalidSpender","inputs":[{"name":"spender","type":"address","internalType":"address"}]}],"bytecode":{"object":"0x60a060405234801561000f575f5ffd5b506040518060400160405280601081526020017f53796e746865736973204c6564676572000000000000000000000000000000008152506040518060400160405280600481526020017f53594e4c00000000000000000000000000000000000000000000000000000000815250816003908161008b91906104f1565b50806004908161009b91906104f1565b5050504260808181525050426007819055506100bf5f5f1b3361015360201b60201c565b506100f07f5618c334698f0cb973068ee356c82fbd6757346e552a7166388299bacded3bc63361015360201b60201c565b50600160095f3373ffffffffffffffffffffffffffffffffffffffff1673ffffffffffffffffffffffffffffffffffffffff1681526020019081526020015f205f6101000a81548160ff0219169083151502179055506001600a819055506105c0565b5f610164838361024960201b60201c565b61023f57600160055f8581526020019081526020015f205f015f8473ffffffffffffffffffffffffffffffffffffffff1673ffffffffffffffffffffffffffffffffffffffff1681526020019081526020015f205f6101000a81548160ff0219169083151502179055506101dc6102ad60201b60201c565b73ffffffffffffffffffffffffffffffffffffffff168273ffffffffffffffffffffffffffffffffffffffff16847f2f8788117e7eff1d82e926ec794901d17c78024a50270940304540a733656f0d60405160405180910390a460019050610243565b5f90505b92915050565b5f60055f8481526020019081526020015f205f015f8373ffffffffffffffffffffffffffffffffffffffff1673ffffffffffffffffffffffffffffffffffffffff1681526020019081526020015f205f9054906101000a900460ff16905092915050565b5f33905090565b5f81519050919050565b7f4e487b71000000000000000000000000000000000000000000000000000000005f52604160045260245ffd5b7f4e487b71000000000000000000000000000000000000000000000000000000005f52602260045260245ffd5b5f600282049050600182168061032f57607f821691505b602082108103610342576103416102eb565b5b50919050565b5f819050815f5260205f209050919050565b5f6020601f8301049050919050565b5f82821b905092915050565b5f600883026103a47fffffffffffffffffffffffffffffffffffffffffffffffffffffffffffffffff82610369565b6103ae8683610369565b95508019841693508086168417925050509392505050565b5f819050919050565b5f819050919050565b5f6103f26103ed6103e8846103c6565b6103cf565b6103c6565b9050919050565b5f819050919050565b61040b836103d8565b61041f610417826103f9565b848454610375565b825550505050565b5f5f905090565b610436610427565b610441818484610402565b505050565b5b81811015610464576104595f8261042e565b600181019050610447565b5050565b601f8211156104a95761047a81610348565b6104838461035a565b81016020851015610492578190505b6104a661049e8561035a565b830182610446565b50505b505050565b5f82821c905092915050565b5f6104c95f19846008026104ae565b1980831691505092915050565b5f6104e183836104ba565b9150826002028217905092915050565b6104fa826102b4565b67ffffffffffffffff811115610513576105126102be565b5b61051d8254610318565b610528828285610468565b5f60209050601f831160018114610559575f8415610547578287015190505b61055185826104d6565b8655506105b8565b601f19841661056786610348565b5f5b8281101561058e57848901518255600182019150602085019450602081019050610569565b868310156105ab57848901516105a7601f8916826104ba565b8355505b6001600288020188555050505b505050505050565b608051612b096105ed5f395f81816108dd01528181610bba01528181610efe01526112ec0152612b095ff3fe608060405234801561000f575f5ffd5b5060043610610225575f3560e01c806370a082311161012e578063a9059cbb116100b6578063c9ffa7061161007a578063c9ffa70614610693578063d547741f1461069d578063dd62ed3e146106b9578063eecbdf10146106e9578063f57107d21461070557610225565b8063a9059cbb146105db578063aef18bf71461060b578063b343a0df1461063b578063b3531d5014610659578063bfc12c051461067557610225565b806395d89b41116100fd57806395d89b41146105335780639c5adbf614610551578063a217fddf14610581578063a2309ff81461059f578063a4126ed4146105bd57610225565b806370a082311461049757806376f5f700146104c75780638d5d7a36146104e557806391d148541461050357610225565b806323b872dd116101b157806332cb6b0c1161018057806332cb6b0c1461040357806336568abe146104215780633b4e26461461043d57806360e1f1391461045b5780636c79b4951461047957610225565b806323b872dd14610369578063248a9ca3146103995780632f2ff15d146103c9578063313ce567146103e557610225565b80630a88301f116101f85780630a88301f146102c357806311989509146102f357806318160ddd146103115780632184f9771461032f578063238c637b1461034d57610225565b806301ffc9a71461022957806306fdde0314610259578063095ea7b31461027757806309b1d759146102a7575b5f5ffd5b610243600480360381019061023e9190611f1f565b610723565b6040516102509190611f64565b60405180910390f35b61026161079c565b60405161026e9190611fed565b60405180910390f35b610291600480360381019061028c919061209a565b61082c565b60405161029e9190611f64565b60405180910390f35b6102c160048036038101906102bc91906120d8565b61084e565b005b6102dd60048036038101906102d891906120d8565b610b5f565b6040516102ea9190612112565b60405180910390f35b6102fb610b74565b6040516103089190612143565b60405180910390f35b610319610b98565b6040516103269190612112565b60405180910390f35b610337610ba1565b6040516103449190612112565b60405180910390f35b610367600480360381019061036291906120d8565b610ba8565b005b610383600480360381019061037e919061215c565b610dd2565b6040516103909190611f64565b60405180910390f35b6103b360048036038101906103ae91906121d6565b610e00565b6040516103c09190612143565b60405180910390f35b6103e360048036038101906103de9190612201565b610e1d565b005b6103ed610e3f565b6040516103fa919061225a565b60405180910390f35b61040b610e47565b6040516104189190612112565b60405180910390f35b61043b60048036038101906104369190612201565b610e57565b005b610445610ed2565b6040516104529190612143565b60405180910390f35b610463610ef6565b6040516104709190612112565b60405180910390f35b610481610f83565b60405161048e9190612112565b60405180910390f35b6104b160048036038101906104ac91906120d8565b610f89565b6040516104be9190612112565b60405180910390f35b6104cf610fce565b6040516104dc9190612112565b60405180910390f35b6104ed610fd5565b6040516104fa9190612112565b60405180910390f35b61051d60048036038101906105189190612201565b610fdb565b60405161052a9190611f64565b60405180910390f35b61053b61103f565b6040516105489190611fed565b60405180910390f35b61056b600480360381019061056691906120d8565b6110cf565b6040516105789190611f64565b60405180910390f35b6105896110ec565b6040516105969190612143565b60405180910390f35b6105a76110f2565b6040516105b49190612112565b60405180910390f35b6105c56110f8565b6040516105d29190612112565b60405180910390f35b6105f560048036038101906105f0919061209a565b6110fe565b6040516106029190611f64565b60405180910390f35b610625600480360381019061062091906121d6565b611120565b6040516106329190611f64565b60405180910390f35b61064361113d565b6040516106509190612112565b60405180910390f35b610673600480360381019061066e9190612273565b611143565b005b61067d6112ea565b60405161068a9190612112565b60405180910390f35b61069b61130e565b005b6106b760048036038101906106b29190612201565b611329565b005b6106d360048036038101906106ce91906122b1565b61134b565b6040516106e09190612112565b60405180910390f35b61070360048036038101906106fe91906123a5565b6113cd565b005b61070d61160e565b60405161071a9190612112565b60405180910390f35b5f7f7965db0b000000000000000000000000000000000000000000000000000000007bffffffffffffffffffffffffffffffffffffffffffffffffffffffff1916827bffffffffffffffffffffffffffffffffffffffffffffffffffffffff1916148061079557506107948261161d565b5b9050919050565b6060600380546107ab90612450565b80601f01602080910402602001604051908101604052809291908181526020018280546107d790612450565b80156108225780601f106107f957610100808354040283529160200191610822565b820191905f5260205f20905b81548152906001019060200180831161080557829003601f168201915b5050505050905090565b5f5f610836611686565b905061084381858561168d565b600191505092915050565b60095f3373ffffffffffffffffffffffffffffffffffffffff1673ffffffffffffffffffffffffffffffffffffffff1681526020019081526020015f205f9054906101000a900460ff166108d7576040517f08c379a00000000000000000000000000000000000000000000000000000000081526004016108ce906124ca565b60405180910390fd5b6276a7007f00000000000000000000000000000000000000000000000000000000000000006109069190612515565b4211610947576040517f08c379a000000000000000000000000000000000000000000000000000000000815260040161093e90612592565b60405180910390fd5b60095f8273ffffffffffffffffffffffffffffffffffffffff1673ffffffffffffffffffffffffffffffffffffffff1681526020019081526020015f205f9054906101000a900460ff16156109d1576040517f08c379a00000000000000000000000000000000000000000000000000000000081526004016109c8906125fa565b60405180910390fd5b600b5f8273ffffffffffffffffffffffffffffffffffffffff1673ffffffffffffffffffffffffffffffffffffffff1681526020019081526020015f205f815480929190610a1e90612618565b919050555060016003600a54610a34919061268c565b610a3e9190612515565b600b5f8373ffffffffffffffffffffffffffffffffffffffff1673ffffffffffffffffffffffffffffffffffffffff1681526020019081526020015f205410610b5c57600160095f8373ffffffffffffffffffffffffffffffffffffffff1673ffffffffffffffffffffffffffffffffffffffff1681526020019081526020015f205f6101000a81548160ff021916908315150217905550600a5f815480929190610ae890612618565b9190505550610b177f5618c334698f0cb973068ee356c82fbd6757346e552a7166388299bacded3bc68261169f565b508073ffffffffffffffffffffffffffffffffffffffff167f8a790c90652ef4975fabe5ae5475445ce345c7a0cc3420f9e0d8b89b9918ccb060405160405180910390a25b50565b600b602052805f5260405f205f915090505481565b7f5618c334698f0cb973068ee356c82fbd6757346e552a7166388299bacded3bc681565b5f600254905090565b6276a70081565b5f5f1b610bb481611789565b6276a7007f0000000000000000000000000000000000000000000000000000000000000000610be39190612515565b421115610c25576040517f08c379a0000000000000000000000000000000000000000000000000000000008152600401610c1c90612706565b60405180910390fd5b60095f8373ffffffffffffffffffffffffffffffffffffffff1673ffffffffffffffffffffffffffffffffffffffff1681526020019081526020015f205f9054906101000a900460ff1615610caf576040517f08c379a0000000000000000000000000000000000000000000000000000000008152600401610ca69061276e565b60405180910390fd5b605a600a5410610cf4576040517f08c379a0000000000000000000000000000000000000000000000000000000008152600401610ceb906127d6565b60405180910390fd5b600160095f8473ffffffffffffffffffffffffffffffffffffffff1673ffffffffffffffffffffffffffffffffffffffff1681526020019081526020015f205f6101000a81548160ff021916908315150217905550600a5f815480929190610d5b90612618565b9190505550610d8a7f5618c334698f0cb973068ee356c82fbd6757346e552a7166388299bacded3bc68361169f565b508173ffffffffffffffffffffffffffffffffffffffff167f8a790c90652ef4975fabe5ae5475445ce345c7a0cc3420f9e0d8b89b9918ccb060405160405180910390a25050565b5f5f610ddc611686565b9050610de985828561179d565b610df4858585611830565b60019150509392505050565b5f60055f8381526020019081526020015f20600101549050919050565b610e2682610e00565b610e2f81611789565b610e39838361169f565b50505050565b5f6012905090565b6b033b2e3c9fd0803ce800000081565b610e5f611686565b73ffffffffffffffffffffffffffffffffffffffff168173ffffffffffffffffffffffffffffffffffffffff1614610ec3576040517f6697b23200000000000000000000000000000000000000000000000000000000815260040160405180910390fd5b610ecd8282611920565b505050565b7fd9ec6f45433bd3741734a224ab231970b6c603c2b3bfc8f78bb4db5db683ea8481565b5f5f62093a807f000000000000000000000000000000000000000000000000000000000000000042610f2891906127f4565b610f32919061268c565b90505f6a19711e5ce885a4ea34000090505f5f90505b82811015610f7a5761271061264883610f619190612827565b610f6b919061268c565b91508080600101915050610f48565b50809250505090565b600a5481565b5f5f5f8373ffffffffffffffffffffffffffffffffffffffff1673ffffffffffffffffffffffffffffffffffffffff1681526020019081526020015f20549050919050565b62093a8081565b61264881565b5f60055f8481526020019081526020015f205f015f8373ffffffffffffffffffffffffffffffffffffffff1673ffffffffffffffffffffffffffffffffffffffff1681526020019081526020015f205f9054906101000a900460ff16905092915050565b60606004805461104e90612450565b80601f016020809104026020016040519081016040528092919081815260200182805461107a90612450565b80156110c55780601f1061109c576101008083540402835291602001916110c5565b820191905f5260205f20905b8154815290600101906020018083116110a857829003601f168201915b5050505050905090565b6009602052805f5260405f205f915054906101000a900460ff1681565b5f5f1b81565b60065481565b60085481565b5f5f611108611686565b9050611115818585611830565b600191505092915050565b600c602052805f5260405f205f915054906101000a900460ff1681565b60075481565b7fd9ec6f45433bd3741734a224ab231970b6c603c2b3bfc8f78bb4db5db683ea8461116d81611789565b600c5f8381526020019081526020015f205f9054906101000a900460ff16156111cb576040517f08c379a00000000000000000000000000000000000000000000000000000000081526004016111c2906128b2565b60405180910390fd5b6b033b2e3c9fd0803ce8000000683635c9adc5dea000006006546111ef9190612515565b1115611230576040517f08c379a00000000000000000000000000000000000000000000000000000000081526004016112279061291a565b60405180910390fd5b6001600c5f8481526020019081526020015f205f6101000a81548160ff021916908315150217905550683635c9adc5dea0000060065f8282546112739190612515565b9250508190555061128d83683635c9adc5dea00000611a0a565b818373ffffffffffffffffffffffffffffffffffffffff167fafcc0ca441354c39d66a3c5e6542c8897b0a2160f81b9decd0a469636cc48adb683635c9adc5dea000006040516112dd919061297a565b60405180910390a3505050565b7f000000000000000000000000000000000000000000000000000000000000000081565b5f5f1b61131a81611789565b6113265f5f1b33610e57565b50565b61133282610e00565b61133b81611789565b6113458383611920565b50505050565b5f60015f8473ffffffffffffffffffffffffffffffffffffffff1673ffffffffffffffffffffffffffffffffffffffff1681526020019081526020015f205f8373ffffffffffffffffffffffffffffffffffffffff1673ffffffffffffffffffffffffffffffffffffffff1681526020019081526020015f2054905092915050565b60095f3373ffffffffffffffffffffffffffffffffffffffff1673ffffffffffffffffffffffffffffffffffffffff1681526020019081526020015f205f9054906101000a900460ff16611456576040517f08c379a000000000000000000000000000000000000000000000000000000000815260040161144d906124ca565b60405180910390fd5b62093a806007546114679190612515565b421061147c575f600881905550426007819055505b5f5f90505f5f90505b838390508110156114c4578383828181106114a3576114a2612993565b5b90506020020135826114b59190612515565b91508080600101915050611485565b506114cd610ef6565b816008546114db9190612515565b111561151c576040517f08c379a000000000000000000000000000000000000000000000000000000000815260040161151390612a0a565b60405180910390fd5b8060085f82825461152d9190612515565b925050819055508060065f8282546115459190612515565b925050819055505f5f90505b858590508110156115b3576115a686868381811061157257611571612993565b5b905060200201602081019061158791906120d8565b85858481811061159a57611599612993565b5b90506020020135611a0a565b8080600101915050611551565b503373ffffffffffffffffffffffffffffffffffffffff167feccc88db3fc66484c94e4688dcbd8e31710f50c82f083acde5e5cf14c1c1163782878790506040516115ff929190612a28565b60405180910390a25050505050565b6a19711e5ce885a4ea34000081565b5f7f01ffc9a7000000000000000000000000000000000000000000000000000000007bffffffffffffffffffffffffffffffffffffffffffffffffffffffff1916827bffffffffffffffffffffffffffffffffffffffffffffffffffffffff1916149050919050565b5f33905090565b61169a8383836001611a89565b505050565b5f6116aa8383610fdb565b61177f57600160055f8581526020019081526020015f205f015f8473ffffffffffffffffffffffffffffffffffffffff1673ffffffffffffffffffffffffffffffffffffffff1681526020019081526020015f205f6101000a81548160ff02191690831515021790555061171c611686565b73ffffffffffffffffffffffffffffffffffffffff168273ffffffffffffffffffffffffffffffffffffffff16847f2f8788117e7eff1d82e926ec794901d17c78024a50270940304540a733656f0d60405160405180910390a460019050611783565b5f90505b92915050565b61179a81611795611686565b611c58565b50565b5f6117a8848461134b565b90507fffffffffffffffffffffffffffffffffffffffffffffffffffffffffffffffff81101561182a578181101561181b578281836040517ffb8f41b200000000000000000000000000000000000000000000000000000000815260040161181293929190612a5e565b60405180910390fd5b61182984848484035f611a89565b5b50505050565b5f73ffffffffffffffffffffffffffffffffffffffff168373ffffffffffffffffffffffffffffffffffffffff16036118a0575f6040517f96c6fd1e0000000000000000000000000000000000000000000000000000000081526004016118979190612a93565b60405180910390fd5b5f73ffffffffffffffffffffffffffffffffffffffff168273ffffffffffffffffffffffffffffffffffffffff1603611910575f6040517fec442f050000000000000000000000000000000000000000000000000000000081526004016119079190612a93565b60405180910390fd5b61191b838383611ca9565b505050565b5f61192b8383610fdb565b15611a00575f60055f8581526020019081526020015f205f015f8473ffffffffffffffffffffffffffffffffffffffff1673ffffffffffffffffffffffffffffffffffffffff1681526020019081526020015f205f6101000a81548160ff02191690831515021790555061199d611686565b73ffffffffffffffffffffffffffffffffffffffff168273ffffffffffffffffffffffffffffffffffffffff16847ff6391f5c32d9c69d2a47ea670b442974b53935d1edc7fd64eb21e047a839171b60405160405180910390a460019050611a04565b5f90505b92915050565b5f73ffffffffffffffffffffffffffffffffffffffff168273ffffffffffffffffffffffffffffffffffffffff1603611a7a575f6040517fec442f05000000000000000000000000000000000000000000000000000000008152600401611a719190612a93565b60405180910390fd5b611a855f8383611ca9565b5050565b5f73ffffffffffffffffffffffffffffffffffffffff168473ffffffffffffffffffffffffffffffffffffffff1603611af9575f6040517fe602df05000000000000000000000000000000000000000000000000000000008152600401611af09190612a93565b60405180910390fd5b5f73ffffffffffffffffffffffffffffffffffffffff168373ffffffffffffffffffffffffffffffffffffffff1603611b69575f6040517f94280d62000000000000000000000000000000000000000000000000000000008152600401611b609190612a93565b60405180910390fd5b8160015f8673ffffffffffffffffffffffffffffffffffffffff1673ffffffffffffffffffffffffffffffffffffffff1681526020019081526020015f205f8573ffffffffffffffffffffffffffffffffffffffff1673ffffffffffffffffffffffffffffffffffffffff1681526020019081526020015f20819055508015611c52578273ffffffffffffffffffffffffffffffffffffffff168473ffffffffffffffffffffffffffffffffffffffff167f8c5be1e5ebec7d5bd14f71427d1e84f3dd0314c0f7b2291e5b200ac8c7c3b92584604051611c499190612112565b60405180910390a35b50505050565b611c628282610fdb565b611ca55780826040517fe2517d3f000000000000000000000000000000000000000000000000000000008152600401611c9c929190612aac565b60405180910390fd5b5050565b5f73ffffffffffffffffffffffffffffffffffffffff168373ffffffffffffffffffffffffffffffffffffffff1603611cf9578060025f828254611ced9190612515565b92505081905550611dc7565b5f5f5f8573ffffffffffffffffffffffffffffffffffffffff1673ffffffffffffffffffffffffffffffffffffffff1681526020019081526020015f2054905081811015611d82578381836040517fe450d38c000000000000000000000000000000000000000000000000000000008152600401611d7993929190612a5e565b60405180910390fd5b8181035f5f8673ffffffffffffffffffffffffffffffffffffffff1673ffffffffffffffffffffffffffffffffffffffff1681526020019081526020015f2081905550505b5f73ffffffffffffffffffffffffffffffffffffffff168273ffffffffffffffffffffffffffffffffffffffff1603611e0e578060025f8282540392505081905550611e58565b805f5f8473ffffffffffffffffffffffffffffffffffffffff1673ffffffffffffffffffffffffffffffffffffffff1681526020019081526020015f205f82825401925050819055505b8173ffffffffffffffffffffffffffffffffffffffff168373ffffffffffffffffffffffffffffffffffffffff167fddf252ad1be2c89b69c2b068fc378daa952ba7f163c4a11628f55a4df523b3ef83604051611eb59190612112565b60405180910390a3505050565b5f5ffd5b5f5ffd5b5f7fffffffff0000000000000000000000000000000000000000000000000000000082169050919050565b611efe81611eca565b8114611f08575f5ffd5b50565b5f81359050611f1981611ef5565b92915050565b5f60208284031215611f3457611f33611ec2565b5b5f611f4184828501611f0b565b91505092915050565b5f8115159050919050565b611f5e81611f4a565b82525050565b5f602082019050611f775f830184611f55565b92915050565b5f81519050919050565b5f82825260208201905092915050565b8281835e5f83830152505050565b5f601f19601f8301169050919050565b5f611fbf82611f7d565b611fc98185611f87565b9350611fd9818560208601611f97565b611fe281611fa5565b840191505092915050565b5f6020820190508181035f8301526120058184611fb5565b905092915050565b5f73ffffffffffffffffffffffffffffffffffffffff82169050919050565b5f6120368261200d565b9050919050565b6120468161202c565b8114612050575f5ffd5b50565b5f813590506120618161203d565b92915050565b5f819050919050565b61207981612067565b8114612083575f5ffd5b50565b5f8135905061209481612070565b92915050565b5f5f604083850312156120b0576120af611ec2565b5b5f6120bd85828601612053565b92505060206120ce85828601612086565b9150509250929050565b5f602082840312156120ed576120ec611ec2565b5b5f6120fa84828501612053565b91505092915050565b61210c81612067565b82525050565b5f6020820190506121255f830184612103565b92915050565b5f819050919050565b61213d8161212b565b82525050565b5f6020820190506121565f830184612134565b92915050565b5f5f5f6060848603121561217357612172611ec2565b5b5f61218086828701612053565b935050602061219186828701612053565b92505060406121a286828701612086565b9150509250925092565b6121b58161212b565b81146121bf575f5ffd5b50565b5f813590506121d0816121ac565b92915050565b5f602082840312156121eb576121ea611ec2565b5b5f6121f8848285016121c2565b91505092915050565b5f5f6040838503121561221757612216611ec2565b5b5f612224858286016121c2565b925050602061223585828601612053565b9150509250929050565b5f60ff82169050919050565b6122548161223f565b82525050565b5f60208201905061226d5f83018461224b565b92915050565b5f5f6040838503121561228957612288611ec2565b5b5f61229685828601612053565b92505060206122a7858286016121c2565b9150509250929050565b5f5f604083850312156122c7576122c6611ec2565b5b5f6122d485828601612053565b92505060206122e585828601612053565b9150509250929050565b5f5ffd5b5f5ffd5b5f5ffd5b5f5f83601f8401126123105761230f6122ef565b5b8235905067ffffffffffffffff81111561232d5761232c6122f3565b5b602083019150836020820283011115612349576123486122f7565b5b9250929050565b5f5f83601f840112612365576123646122ef565b5b8235905067ffffffffffffffff811115612382576123816122f3565b5b60208301915083602082028301111561239e5761239d6122f7565b5b9250929050565b5f5f5f5f604085870312156123bd576123bc611ec2565b5b5f85013567ffffffffffffffff8111156123da576123d9611ec6565b5b6123e6878288016122fb565b9450945050602085013567ffffffffffffffff81111561240957612408611ec6565b5b61241587828801612350565b925092505092959194509250565b7f4e487b71000000000000000000000000000000000000000000000000000000005f52602260045260245ffd5b5f600282049050600182168061246757607f821691505b60208210810361247a57612479612423565b5b50919050565b7f43616c6c6572206973206e6f742061204b6579204669677572650000000000005f82015250565b5f6124b4601a83611f87565b91506124bf82612480565b602082019050919050565b5f6020820190508181035f8301526124e1816124a8565b9050919050565b7f4e487b71000000000000000000000000000000000000000000000000000000005f52601160045260245ffd5b5f61251f82612067565b915061252a83612067565b9250828201905080821115612542576125416124e8565b5b92915050565b7f566f74696e6720737461727473206166746572203930206461797300000000005f82015250565b5f61257c601b83611f87565b915061258782612548565b602082019050919050565b5f6020820190508181035f8301526125a981612570565b9050919050565b7f416c72656164792061206d656d626572000000000000000000000000000000005f82015250565b5f6125e4601083611f87565b91506125ef826125b0565b602082019050919050565b5f6020820190508181035f830152612611816125d8565b9050919050565b5f61262282612067565b91507fffffffffffffffffffffffffffffffffffffffffffffffffffffffffffffffff8203612654576126536124e8565b5b600182019050919050565b7f4e487b71000000000000000000000000000000000000000000000000000000005f52601260045260245ffd5b5f61269682612067565b91506126a183612067565b9250826126b1576126b061265f565b5b828204905092915050565b7f4d616e75616c207472616e736974696f6e2077696e646f7720636c6f736564005f82015250565b5f6126f0601f83611f87565b91506126fb826126bc565b602082019050919050565b5f6020820190508181035f83015261271d816126e4565b9050919050565b7f416c72656164792061204b6579204669677572650000000000000000000000005f82015250565b5f612758601483611f87565b915061276382612724565b602082019050919050565b5f6020820190508181035f8301526127858161274c565b9050919050565b7f436f756e63696c206c696d6974207265616368656400000000000000000000005f82015250565b5f6127c0601583611f87565b91506127cb8261278c565b602082019050919050565b5f6020820190508181035f8301526127ed816127b4565b9050919050565b5f6127fe82612067565b915061280983612067565b9250828203905081811115612821576128206124e8565b5b92915050565b5f61283182612067565b915061283c83612067565b925082820261284a81612067565b91508282048414831517612861576128606124e8565b5b5092915050565b7f4861736820616c726561647920757365640000000000000000000000000000005f82015250565b5f61289c601183611f87565b91506128a782612868565b602082019050919050565b5f6020820190508181035f8301526128c981612890565b9050919050565b7f537570706c7920636170207265616368656400000000000000000000000000005f82015250565b5f612904601283611f87565b915061290f826128d0565b602082019050919050565b5f6020820190508181035f830152612931816128f8565b9050919050565b5f819050919050565b5f819050919050565b5f61296461295f61295a84612938565b612941565b612067565b9050919050565b6129748161294a565b82525050565b5f60208201905061298d5f83018461296b565b92915050565b7f4e487b71000000000000000000000000000000000000000000000000000000005f52603260045260245ffd5b7f45786365656473207765656b6c79206c696d69740000000000000000000000005f82015250565b5f6129f4601483611f87565b91506129ff826129c0565b602082019050919050565b5f6020820190508181035f830152612a21816129e8565b9050919050565b5f604082019050612a3b5f830185612103565b612a486020830184612103565b9392505050565b612a588161202c565b82525050565b5f606082019050612a715f830186612a4f565b612a7e6020830185612103565b612a8b6040830184612103565b949350505050565b5f602082019050612aa65f830184612a4f565b92915050565b5f604082019050612abf5f830185612a4f565b612acc6020830184612134565b939250505056fea2646970667358221220998595658709c6c0740e4ca501a12f63068bb9d30f4120b392646fa420c1af2964736f6c634300081f0033","linkReferences":{}},"methodIdentifiers":{"DECAY_BPS()":"8d5d7a36","DEFAULT_ADMIN_ROLE()":"a217fddf","GENESIS_WEEKLY_RELEASE()":"f57107d2","GROWTH_CONTROLLER_ROLE()":"11989509","LEDGER_ROLE()":"3b4e2646","MAX_SUPPLY()":"32cb6b0c","TRANSITION_WINDOW()":"2184f977","WEEK_DURATION()":"76f5f700","allowance(address,address)":"dd62ed3e","appointKeyFigure(address)":"238c637b","approve(address,uint256)":"095ea7b3","balanceOf(address)":"70a08231","calculateWeeklyLimit()":"60e1f139","councilSize()":"6c79b495","currentWeekMinted()":"a4126ed4","decimals()":"313ce567","deploymentTimestamp()":"bfc12c05","distributeGrowth(address[],uint256[])":"eecbdf10","finalizeFounderTransition()":"c9ffa706","getRoleAdmin(bytes32)":"248a9ca3","grantRole(bytes32,address)":"2f2ff15d","hasRole(bytes32,address)":"91d14854","isKeyFigure(address)":"9c5adbf6","lastResetTimestamp()":"b343a0df","membershipVotes(address)":"0a88301f","mintHuntReward(address,bytes32)":"b3531d50","name()":"06fdde03","renounceRole(bytes32,address)":"36568abe","revokeRole(bytes32,address)":"d547741f","supportsInterface(bytes4)":"01ffc9a7","symbol()":"95d89b41","totalMinted()":"a2309ff8","totalSupply()":"18160ddd","transfer(address,uint256)":"a9059cbb","transferFrom(address,address,uint256)":"23b872dd","usedHashes(bytes32)":"aef18bf7","voteForNewMember(address)":"09b1d759"},"id":25}