{"abi":[{"type":"constructor","inputs":[],"stateMutability":"nonpayable"},{"type":"function","name":"AUDITOR_ROLE","inputs":[],"outputs":[{"name":"","type":"bytes32","internalType":"bytes32"}],"stateMutability":"view"},{"type":"function","name":"DEFAULT_ADMIN_ROLE","inputs":[],"outputs":[{"name":"","type":"bytes32","internalType":"bytes32"}],"stateMutability":"view"},{"type":"function","name":"SLASH_FLOOR","inputs":[],"outputs":[{"name":"","type":"uint256","internalType":"uint256"}],"stateMutability":"view"},{"type":"function","name":"hasRole","inputs":[{"name":"role","type":"bytes32","internalType":"bytes32"},{"name":"account","type":"address","internalType":"address"}],"outputs":[{"name":"","type":"bool","internalType":"bool"}],"stateMutability":"view"},{"type":"function","name":"mintRecipe","inputs":[{"name":"outcome","type":"string","internalType":"string"},{"name":"cid","type":"string","internalType":"string"},{"name":"bps","type":"uint256","internalType":"uint256"},{"name":"auditHash","type":"bytes32","internalType":"bytes32"}],"outputs":[],"stateMutability":"nonpayable"},{"type":"function","name":"nextId","inputs":[],"outputs":[{"name":"","type":"uint256","internalType":"uint256"}],"stateMutability":"view"},{"type":"function","name":"recipes","inputs":[{"name":"","type":"uint256","internalType":"uint256"}],"outputs":[{"name":"outcome","type":"string","internalType":"string"},{"name":"cid","type":"string","internalType":"string"},{"name":"bps","type":"uint256","internalType":"uint256"},{"name":"strikeCount","type":"uint256","internalType":"uint256"},{"name":"lastAuditTimestamp","type":"uint256","internalType":"uint256"},{"name":"active","type":"bool","internalType":"bool"},{"name":"lastAuditHash","type":"bytes32","internalType":"bytes32"}],"stateMutability":"view"},{"type":"function","name":"setBps","inputs":[{"name":"id","type":"uint256","internalType":"uint256"},{"name":"newBps","type":"uint256","internalType":"uint256"},{"name":"auditHash","type":"bytes32","internalType":"bytes32"}],"outputs":[],"stateMutability":"nonpayable"},{"type":"event","name":"RoleGranted","inputs":[{"name":"role","type":"bytes32","indexed":true,"internalType":"bytes32"},{"name":"account","type":"address","indexed":true,"internalType":"address"},{"name":"sender","type":"address","indexed":true,"internalType":"address"}],"anonymous":false}],"bytecode":{"object":"0x6080604052348015600e575f5ffd5b5060175f336043565b603f7f59a1c48e5837ad7a7f3dcedcbe129bf3249ec4fbf651fd4f5e2600ead39fe2f5336043565b60de565b5f828152602081815260408083206001600160a01b038516845290915290205460ff1660da575f828152602081815260408083206001600160a01b03851684529091529020805460ff1916600117905560993390565b6001600160a01b0316816001600160a01b0316837f2f8788117e7eff1d82e926ec794901d17c78024a50270940304540a733656f0d60405160405180910390a45b5050565b6108e1806100eb5f395ff3fe608060405234801561000f575f5ffd5b5060043610610085575f3560e01c80636e1d616e116100585780636e1d616e146100f757806391d148541461011e578063a217fddf14610141578063faa95bc114610148575f5ffd5b80632dc6c8fe146100895780632ec899651461009e578063443c227c146100b157806361b8ce8c146100e0575b5f5ffd5b61009c61009736600461057b565b610151565b005b61009c6100ac3660046105ef565b610249565b6100c46100bf366004610618565b610368565b6040516100d7979695949392919061065d565b60405180910390f35b6100e960025481565b6040519081526020016100d7565b6100e97f59a1c48e5837ad7a7f3dcedcbe129bf3249ec4fbf651fd4f5e2600ead39fe2f581565b61013161012c3660046106ae565b6104b2565b60405190151581526020016100d7565b6100e95f81565b6100e9611e7881565b5f61015c81336104b2565b6101815760405162461bcd60e51b8152600401610178906106e7565b60405180910390fd5b6040805160e08101825286815260208082018790528183018690525f60608301819052426080840152600160a0840181905260c08401879052600254825290915291909120815181906101d490826107b1565b50602082015160018201906101e990826107b1565b506040820151600282810191909155606083015160038301556080830151600483015560a083015160058301805460ff191691151591909117905560c0909201516006909101558054905f61023d83610880565b91905055505050505050565b7f59a1c48e5837ad7a7f3dcedcbe129bf3249ec4fbf651fd4f5e2600ead39fe2f561027481336104b2565b6102905760405162461bcd60e51b8152600401610178906106e7565b5f848152600160205260409020600581015460ff166102dc5760405162461bcd60e51b81526020600482015260086024820152674f62736f6c65746560c01b6044820152606401610178565b60048101546102ee906207e900610898565b42101561032f5760405162461bcd60e51b815260206004820152600f60248201526e436f6f6c646f776e2061637469766560881b6044820152606401610178565b611e7884101561035057600381018054905f61034a83610880565b91905055505b60028101939093555042600483015560069091015550565b60016020525f90815260409020805481906103829061072d565b80601f01602080910402602001604051908101604052809291908181526020018280546103ae9061072d565b80156103f95780601f106103d0576101008083540402835291602001916103f9565b820191905f5260205f20905b8154815290600101906020018083116103dc57829003601f168201915b50505050509080600101805461040e9061072d565b80601f016020809104026020016040519081016040528092919081815260200182805461043a9061072d565b80156104855780601f1061045c57610100808354040283529160200191610485565b820191905f5260205f20905b81548152906001019060200180831161046857829003601f168201915b505050506002830154600384015460048501546005860154600690960154949592949193509160ff169087565b5f828152602081815260408083206001600160a01b038516845290915290205460ff165b92915050565b634e487b7160e01b5f52604160045260245ffd5b5f82601f8301126104ff575f5ffd5b813567ffffffffffffffff811115610519576105196104dc565b604051601f8201601f19908116603f0116810167ffffffffffffffff81118282101715610548576105486104dc565b60405281815283820160200185101561055f575f5ffd5b816020850160208301375f918101602001919091529392505050565b5f5f5f5f6080858703121561058e575f5ffd5b843567ffffffffffffffff8111156105a4575f5ffd5b6105b0878288016104f0565b945050602085013567ffffffffffffffff8111156105cc575f5ffd5b6105d8878288016104f0565b949794965050505060408301359260600135919050565b5f5f5f60608486031215610601575f5ffd5b505081359360208301359350604090920135919050565b5f60208284031215610628575f5ffd5b5035919050565b5f81518084528060208401602086015e5f602082860101526020601f19601f83011685010191505092915050565b60e081525f61066f60e083018a61062f565b8281036020840152610681818a61062f565b6040840198909852505060608101949094526080840192909252151560a083015260c09091015292915050565b5f5f604083850312156106bf575f5ffd5b8235915060208301356001600160a01b03811681146106dc575f5ffd5b809150509250929050565b60208082526026908201527f416363657373436f6e74726f6c3a206163636f756e74206973206d697373696e6040820152656720726f6c6560d01b606082015260800190565b600181811c9082168061074157607f821691505b60208210810361075f57634e487b7160e01b5f52602260045260245ffd5b50919050565b601f8211156107ac57805f5260205f20601f840160051c8101602085101561078a5750805b601f840160051c820191505b818110156107a9575f8155600101610796565b50505b505050565b815167ffffffffffffffff8111156107cb576107cb6104dc565b6107df816107d9845461072d565b84610765565b6020601f821160018114610811575f83156107fa5750848201515b5f19600385901b1c1916600184901b1784556107a9565b5f84815260208120601f198516915b828110156108405787850151825560209485019460019092019101610820565b508482101561085d57868401515f19600387901b60f8161c191681555b50505050600190811b01905550565b634e487b7160e01b5f52601160045260245ffd5b5f600182016108915761089161086c565b5060010190565b808201808211156104d6576104d661086c56fea26469706673582212208f03ec158f177c56b1f86f48a9f84921c2261befbd8c94e46dc08fdedd15a43064736f6c634300081f0033","linkReferences":{}},"methodIdentifiers":{"AUDITOR_ROLE()":"6e1d616e","DEFAULT_ADMIN_ROLE()":"a217fddf","SLASH_FLOOR()":"faa95bc1","hasRole(bytes32,address)":"91d14854","mintRecipe(string,string,uint256,bytes32)":"2dc6c8fe","nextId()":"61b8ce8c","recipes(uint256)":"443c227c","setBps(uint256,uint256,bytes32)":"2ec89965"},"id":0}