{"abi":[{"type":"constructor","inputs":[{"name":"_founderVault","type":"address","internalType":"address"},{"name":"_oracle","type":"address","internalType":"address"},{"name":"_token","type":"address","internalType":"address"}],"stateMutability":"nonpayable"},{"type":"function","name":"BOOTSTRAP_FEE_SYNL","inputs":[],"outputs":[{"name":"","type":"uint256","internalType":"uint256"}],"stateMutability":"view"},{"type":"function","name":"BPS_FLOOR","inputs":[],"outputs":[{"name":"","type":"uint256","internalType":"uint256"}],"stateMutability":"view"},{"type":"function","name":"CERTIFICATION_FEE_USD","inputs":[],"outputs":[{"name":"","type":"uint256","internalType":"uint256"}],"stateMutability":"view"},{"type":"function","name":"DEFAULT_ADMIN_ROLE","inputs":[],"outputs":[{"name":"","type":"bytes32","internalType":"bytes32"}],"stateMutability":"view"},{"type":"function","name":"FOUNDER_VAULT","inputs":[],"outputs":[{"name":"","type":"address","internalType":"address"}],"stateMutability":"view"},{"type":"function","name":"GROWTH_CONTROLLER_ROLE","inputs":[],"outputs":[{"name":"","type":"bytes32","internalType":"bytes32"}],"stateMutability":"view"},{"type":"function","name":"TRANSITION_WINDOW","inputs":[],"outputs":[{"name":"","type":"uint256","internalType":"uint256"}],"stateMutability":"view"},{"type":"function","name":"auditSweepArweaveId","inputs":[],"outputs":[{"name":"","type":"string","internalType":"string"}],"stateMutability":"view"},{"type":"function","name":"calculateSynlFee","inputs":[],"outputs":[{"name":"","type":"uint256","internalType":"uint256"}],"stateMutability":"view"},{"type":"function","name":"deploymentTimestamp","inputs":[],"outputs":[{"name":"","type":"uint256","internalType":"uint256"}],"stateMutability":"view"},{"type":"function","name":"executeAndCertify","inputs":[{"name":"_atomicId","type":"string","internalType":"string"},{"name":"_dataHash","type":"bytes32","internalType":"bytes32"},{"name":"_referrer","type":"address","internalType":"address"}],"outputs":[],"stateMutability":"nonpayable"},{"type":"function","name":"executedHashes","inputs":[{"name":"","type":"bytes32","internalType":"bytes32"}],"outputs":[{"name":"","type":"bool","internalType":"bool"}],"stateMutability":"view"},{"type":"function","name":"getRoleAdmin","inputs":[{"name":"role","type":"bytes32","internalType":"bytes32"}],"outputs":[{"name":"","type":"bytes32","internalType":"bytes32"}],"stateMutability":"view"},{"type":"function","name":"grantRole","inputs":[{"name":"role","type":"bytes32","internalType":"bytes32"},{"name":"account","type":"address","internalType":"address"}],"outputs":[],"stateMutability":"nonpayable"},{"type":"function","name":"hasRole","inputs":[{"name":"role","type":"bytes32","internalType":"bytes32"},{"name":"account","type":"address","internalType":"address"}],"outputs":[{"name":"","type":"bool","internalType":"bool"}],"stateMutability":"view"},{"type":"function","name":"idToName","inputs":[{"name":"","type":"uint256","internalType":"uint256"}],"outputs":[{"name":"","type":"string","internalType":"string"}],"stateMutability":"view"},{"type":"function","name":"issueStrike","inputs":[{"name":"_atomicId","type":"string","internalType":"string"},{"name":"_newBps","type":"uint256","internalType":"uint256"}],"outputs":[],"stateMutability":"nonpayable"},{"type":"function","name":"oracleAddress","inputs":[],"outputs":[{"name":"","type":"address","internalType":"address"}],"stateMutability":"view"},{"type":"function","name":"recordPulse","inputs":[{"name":"id","type":"uint256","internalType":"uint256"},{"name":"bps","type":"uint256","internalType":"uint256"},{"name":"certHash","type":"bytes32","internalType":"bytes32"}],"outputs":[{"name":"","type":"bool","internalType":"bool"}],"stateMutability":"nonpayable"},{"type":"function","name":"referrers","inputs":[{"name":"","type":"address","internalType":"address"}],"outputs":[{"name":"","type":"address","internalType":"address"}],"stateMutability":"view"},{"type":"function","name":"registerAtomic","inputs":[{"name":"_id","type":"uint256","internalType":"uint256"},{"name":"_name","type":"string","internalType":"string"},{"name":"_cid","type":"string","internalType":"string"},{"name":"_creator","type":"address","internalType":"address"}],"outputs":[],"stateMutability":"nonpayable"},{"type":"function","name":"registry","inputs":[{"name":"","type":"string","internalType":"string"}],"outputs":[{"name":"cid","type":"string","internalType":"string"},{"name":"creator","type":"address","internalType":"address"},{"name":"bps","type":"uint256","internalType":"uint256"},{"name":"strikes","type":"uint256","internalType":"uint256"},{"name":"isObsolete","type":"bool","internalType":"bool"}],"stateMutability":"view"},{"type":"function","name":"renounceRole","inputs":[{"name":"role","type":"bytes32","internalType":"bytes32"},{"name":"callerConfirmation","type":"address","internalType":"address"}],"outputs":[],"stateMutability":"nonpayable"},{"type":"function","name":"revokeRole","inputs":[{"name":"role","type":"bytes32","internalType":"bytes32"},{"name":"account","type":"address","internalType":"address"}],"outputs":[],"stateMutability":"nonpayable"},{"type":"function","name":"sovereignEngineArweaveId","inputs":[],"outputs":[{"name":"","type":"string","internalType":"string"}],"stateMutability":"view"},{"type":"function","name":"supportsInterface","inputs":[{"name":"interfaceId","type":"bytes4","internalType":"bytes4"}],"outputs":[{"name":"","type":"bool","internalType":"bool"}],"stateMutability":"view"},{"type":"function","name":"synlTokenAddress","inputs":[],"outputs":[{"name":"","type":"address","internalType":"address"}],"stateMutability":"view"},{"type":"function","name":"updateOracle","inputs":[{"name":"_newOracle","type":"address","internalType":"address"}],"outputs":[],"stateMutability":"nonpayable"},{"type":"function","name":"upgradeEternalLogic","inputs":[{"name":"_engineId","type":"string","internalType":"string"},{"name":"_sweepId","type":"string","internalType":"string"}],"outputs":[],"stateMutability":"nonpayable"},{"type":"event","name":"CertificationIssued","inputs":[{"name":"atomicId","type":"string","indexed":false,"internalType":"string"},{"name":"dataHash","type":"bytes32","indexed":false,"internalType":"bytes32"},{"name":"feePaid","type":"uint256","indexed":false,"internalType":"uint256"}],"anonymous":false},{"type":"event","name":"LogicUpgraded","inputs":[{"name":"target","type":"string","indexed":false,"internalType":"string"},{"name":"newArweaveId","type":"string","indexed":false,"internalType":"string"},{"name":"admin","type":"address","indexed":false,"internalType":"address"}],"anonymous":false},{"type":"event","name":"RoleAdminChanged","inputs":[{"name":"role","type":"bytes32","indexed":true,"internalType":"bytes32"},{"name":"previousAdminRole","type":"bytes32","indexed":true,"internalType":"bytes32"},{"name":"newAdminRole","type":"bytes32","indexed":true,"internalType":"bytes32"}],"anonymous":false},{"type":"event","name":"RoleGranted","inputs":[{"name":"role","type":"bytes32","indexed":true,"internalType":"bytes32"},{"name":"account","type":"address","indexed":true,"internalType":"address"},{"name":"sender","type":"address","indexed":true,"internalType":"address"}],"anonymous":false},{"type":"event","name":"RoleRevoked","inputs":[{"name":"role","type":"bytes32","indexed":true,"internalType":"bytes32"},{"name":"account","type":"address","indexed":true,"internalType":"address"},{"name":"sender","type":"address","indexed":true,"internalType":"address"}],"anonymous":false},{"type":"event","name":"StrikeIssued","inputs":[{"name":"atomicId","type":"string","indexed":false,"internalType":"string"},{"name":"totalStrikes","type":"uint256","indexed":false,"internalType":"uint256"},{"name":"newBps","type":"uint256","indexed":false,"internalType":"uint256"}],"anonymous":false},{"type":"error","name":"AccessControlBadConfirmation","inputs":[]},{"type":"error","name":"AccessControlUnauthorizedAccount","inputs":[{"name":"account","type":"address","internalType":"address"},{"name":"neededRole","type":"bytes32","internalType":"bytes32"}]}],"bytecode":{"object":"0x60c060405234801561000f575f5ffd5b50604051612f59380380612f59833981810160405281019061003191906102f6565b8273ffffffffffffffffffffffffffffffffffffffff1660a08173ffffffffffffffffffffffffffffffffffffffff16815250508160015f6101000a81548173ffffffffffffffffffffffffffffffffffffffff021916908373ffffffffffffffffffffffffffffffffffffffff1602179055508060025f6101000a81548173ffffffffffffffffffffffffffffffffffffffff021916908373ffffffffffffffffffffffffffffffffffffffff16021790555042608081815250506100ff5f5f1b3361013960201b60201c565b506101307f5618c334698f0cb973068ee356c82fbd6757346e552a7166388299bacded3bc63361013960201b60201c565b50505050610346565b5f61014a838361022e60201b60201c565b6102245760015f5f8581526020019081526020015f205f015f8473ffffffffffffffffffffffffffffffffffffffff1673ffffffffffffffffffffffffffffffffffffffff1681526020019081526020015f205f6101000a81548160ff0219169083151502179055506101c161029160201b60201c565b73ffffffffffffffffffffffffffffffffffffffff168273ffffffffffffffffffffffffffffffffffffffff16847f2f8788117e7eff1d82e926ec794901d17c78024a50270940304540a733656f0d60405160405180910390a460019050610228565b5f90505b92915050565b5f5f5f8481526020019081526020015f205f015f8373ffffffffffffffffffffffffffffffffffffffff1673ffffffffffffffffffffffffffffffffffffffff1681526020019081526020015f205f9054906101000a900460ff16905092915050565b5f33905090565b5f5ffd5b5f73ffffffffffffffffffffffffffffffffffffffff82169050919050565b5f6102c58261029c565b9050919050565b6102d5816102bb565b81146102df575f5ffd5b50565b5f815190506102f0816102cc565b92915050565b5f5f5f6060848603121561030d5761030c610298565b5b5f61031a868287016102e2565b935050602061032b868287016102e2565b925050604061033c868287016102e2565b9150509250925092565b60805160a051612beb61036e5f395f8181610b6b015261162701525f6113c70152612beb5ff3fe608060405234801561000f575f5ffd5b50600436106101cd575f3560e01c806379d384b511610102578063a89ae4ba116100a0578063d005936a1161006f578063d005936a14610545578063d547741f14610563578063d58fec6e1461057f578063e6d0697d1461059d576101cd565b8063a89ae4ba146104bd578063bcb7ec0e146104db578063bfc12c051461050b578063c7d9818a14610529576101cd565b806391d14854116100dc57806391d148541461041d57806392a296c91461044d578063a217fddf14610481578063a8741dd51461049f576101cd565b806379d384b5146103c557806386571615146103e15780638c4f40c0146103ff576101cd565b8063260d711e1161016f57806336568abe1161014957806336568abe1461033d5780633c1e30d8146103595780634a3b68cc14610377578063694ef272146103a7576101cd565b8063260d711e146102c15780632f2ff15d146102f1578063364410b31461030d576101cd565b806314473573116101ab578063144735731461023b5780631cb44dfc146102575780632184f97714610273578063248a9ca314610291576101cd565b806301ffc9a7146101d15780630a3c451914610201578063119895091461021d575b5f5ffd5b6101eb60048036038101906101e69190611a7b565b6105bb565b6040516101f89190611ac0565b60405180910390f35b61021b60048036038101906102169190611c48565b610634565b005b610225610728565b6040516102329190611cba565b60405180910390f35b61025560048036038101906102509190611d30565b61074c565b005b610271600480360381019061026c9190611e08565b6107dc565b005b61027b61084a565b6040516102889190611e42565b60405180910390f35b6102ab60048036038101906102a69190611e85565b610851565b6040516102b89190611cba565b60405180910390f35b6102db60048036038101906102d69190611e85565b61086d565b6040516102e89190611ac0565b60405180910390f35b61030b60048036038101906103069190611eb0565b61088a565b005b61032760048036038101906103229190611eee565b6108ac565b6040516103349190611f79565b60405180910390f35b61035760048036038101906103529190611eb0565b610947565b005b6103616109c2565b60405161036e9190611e42565b60405180910390f35b610391600480360381019061038c9190611e08565b6109ce565b60405161039e9190611fa8565b60405180910390f35b6103af6109fe565b6040516103bc9190611f79565b60405180910390f35b6103df60048036038101906103da9190611fc1565b610a8a565b005b6103e9610f9e565b6040516103f69190611e42565b60405180910390f35b61040761107b565b6040516104149190611fa8565b60405180910390f35b61043760048036038101906104329190611eb0565b6110a0565b6040516104449190611ac0565b60405180910390f35b6104676004803603810190610462919061202d565b611103565b604051610478959493929190612074565b60405180910390f35b6104896111fe565b6040516104969190611cba565b60405180910390f35b6104a7611204565b6040516104b49190611e42565b60405180910390f35b6104c5611209565b6040516104d29190611fa8565b60405180910390f35b6104f560048036038101906104f091906120cc565b61122e565b6040516105029190611ac0565b60405180910390f35b6105136113c5565b6040516105209190611e42565b60405180910390f35b610543600480360381019061053e919061211c565b6113e9565b005b61054d611571565b60405161055a9190611e42565b60405180910390f35b61057d60048036038101906105789190611eb0565b611577565b005b610587611599565b6040516105949190611f79565b60405180910390f35b6105a5611625565b6040516105b29190611fa8565b60405180910390f35b5f7f7965db0b000000000000000000000000000000000000000000000000000000007bffffffffffffffffffffffffffffffffffffffffffffffffffffffff1916827bffffffffffffffffffffffffffffffffffffffffffffffffffffffff1916148061062d575061062c82611649565b5b9050919050565b7f5618c334698f0cb973068ee356c82fbd6757346e552a7166388299bacded3bc661065e816116b2565b5f60058460405161066f91906121f9565b90815260200160405180910390209050828160020181905550611e788310156106d957806003015f8154809291906106a69061223c565b919050555060038160030154106106d4576001816004015f6101000a81548160ff0219169083151502179055505b6106e3565b5f81600301819055505b7fadb1ca85670999afb0074e011a75397f3ac9eff05d89db101cc95652a226ea558482600301548560405161071a93929190612283565b60405180910390a150505050565b7f5618c334698f0cb973068ee356c82fbd6757346e552a7166388299bacded3bc681565b7f5618c334698f0cb973068ee356c82fbd6757346e552a7166388299bacded3bc6610776816116b2565b8484600391826107879291906124c6565b508282600491826107999291906124c6565b507f737a66ddd465baa43440fe86b71132319fcfbc054592a220e369639c06ff27138585336040516107cd93929190612609565b60405180910390a15050505050565b7f5618c334698f0cb973068ee356c82fbd6757346e552a7166388299bacded3bc6610806816116b2565b8160015f6101000a81548173ffffffffffffffffffffffffffffffffffffffff021916908373ffffffffffffffffffffffffffffffffffffffff1602179055505050565b6276a70081565b5f5f5f8381526020019081526020015f20600101549050919050565b6007602052805f5260405f205f915054906101000a900460ff1681565b61089382610851565b61089c816116b2565b6108a683836116c6565b50505050565b6006602052805f5260405f205f9150905080546108c8906122f6565b80601f01602080910402602001604051908101604052809291908181526020018280546108f4906122f6565b801561093f5780601f106109165761010080835404028352916020019161093f565b820191905f5260205f20905b81548152906001019060200180831161092257829003601f168201915b505050505081565b61094f6117af565b73ffffffffffffffffffffffffffffffffffffffff168173ffffffffffffffffffffffffffffffffffffffff16146109b3576040517f6697b23200000000000000000000000000000000000000000000000000000000815260040160405180910390fd5b6109bd82826117b6565b505050565b670de0b6b3a764000081565b6008602052805f5260405f205f915054906101000a900473ffffffffffffffffffffffffffffffffffffffff1681565b60048054610a0b906122f6565b80601f0160208091040260200160405190810160405280929190818152602001828054610a37906122f6565b8015610a825780601f10610a5957610100808354040283529160200191610a82565b820191905f5260205f20905b815481529060010190602001808311610a6557829003601f168201915b505050505081565b5f600584604051610a9b91906121f9565b90815260200160405180910390209050806004015f9054906101000a900460ff1615610afc576040517f08c379a0000000000000000000000000000000000000000000000000000000008152600401610af3906126bc565b60405180910390fd5b60075f8481526020019081526020015f205f9054906101000a900460ff1615610b5a576040517f08c379a0000000000000000000000000000000000000000000000000000000008152600401610b519061274a565b60405180910390fd5b5f610b63610f9e565b9050610ba8337f00000000000000000000000000000000000000000000000000000000000000006064603285610b999190612768565b610ba391906127d6565b61189f565b5f600383600301541015610bdf57826001015f9054906101000a900473ffffffffffffffffffffffffffffffffffffffff16610be1565b305b9050610c0633826064600a86610bf79190612768565b610c0191906127d6565b61189f565b5f6064602884610c169190612768565b610c2091906127d6565b90505f5f73ffffffffffffffffffffffffffffffffffffffff1660085f3373ffffffffffffffffffffffffffffffffffffffff1673ffffffffffffffffffffffffffffffffffffffff1681526020019081526020015f205f9054906101000a900473ffffffffffffffffffffffffffffffffffffffff1673ffffffffffffffffffffffffffffffffffffffff1603610cb85785610d16565b60085f3373ffffffffffffffffffffffffffffffffffffffff1673ffffffffffffffffffffffffffffffffffffffff1681526020019081526020015f205f9054906101000a900473ffffffffffffffffffffffffffffffffffffffff165b90505f73ffffffffffffffffffffffffffffffffffffffff168173ffffffffffffffffffffffffffffffffffffffff1614610ea0575f73ffffffffffffffffffffffffffffffffffffffff1660085f3373ffffffffffffffffffffffffffffffffffffffff1673ffffffffffffffffffffffffffffffffffffffff1681526020019081526020015f205f9054906101000a900473ffffffffffffffffffffffffffffffffffffffff1673ffffffffffffffffffffffffffffffffffffffff1603610e56578060085f3373ffffffffffffffffffffffffffffffffffffffff1673ffffffffffffffffffffffffffffffffffffffff1681526020019081526020015f205f6101000a81548173ffffffffffffffffffffffffffffffffffffffff021916908373ffffffffffffffffffffffffffffffffffffffff1602179055505b610e7933826064600a88610e6a9190612768565b610e7491906127d6565b61189f565b6064600a85610e889190612768565b610e9291906127d6565b82610e9d9190612806565b91505b610eab33308461189f565b600160075f8981526020019081526020015f205f6101000a81548160ff02191690831515021790555060025f9054906101000a900473ffffffffffffffffffffffffffffffffffffffff1673ffffffffffffffffffffffffffffffffffffffff1663b3531d5033896040518363ffffffff1660e01b8152600401610f30929190612839565b5f604051808303815f87803b158015610f47575f5ffd5b505af1925050508015610f58575060015b507fe102c45e62ee0cd148c4d8a1e666e13fa6e78079f1e2fdee42f6083228727b0d888886604051610f8c93929190612860565b60405180910390a15050505050505050565b5f60015f9054906101000a900473ffffffffffffffffffffffffffffffffffffffff1673ffffffffffffffffffffffffffffffffffffffff166399beaed86040518163ffffffff1660e01b8152600401602060405180830381865afa92505050801561102857506040513d601f19601f8201168201806040525081019061102591906128b0565b60015b61103c57670de0b6b3a76400009050611078565b5f810361105457670de0b6b3a7640000915050611078565b80670de0b6b3a7640000600a61106a9190612768565b61107491906127d6565b9150505b90565b60025f9054906101000a900473ffffffffffffffffffffffffffffffffffffffff1681565b5f5f5f8481526020019081526020015f205f015f8373ffffffffffffffffffffffffffffffffffffffff1673ffffffffffffffffffffffffffffffffffffffff1681526020019081526020015f205f9054906101000a900460ff16905092915050565b6005818051602081018201805184825260208301602085012081835280955050505050505f91509050805f01805461113a906122f6565b80601f0160208091040260200160405190810160405280929190818152602001828054611166906122f6565b80156111b15780601f10611188576101008083540402835291602001916111b1565b820191905f5260205f20905b81548152906001019060200180831161119457829003601f168201915b505050505090806001015f9054906101000a900473ffffffffffffffffffffffffffffffffffffffff1690806002015490806003015490806004015f9054906101000a900460ff16905085565b5f5f1b81565b600a81565b60015f9054906101000a900473ffffffffffffffffffffffffffffffffffffffff1681565b5f5f60065f8681526020019081526020015f20805461124c906122f6565b80601f0160208091040260200160405190810160405280929190818152602001828054611278906122f6565b80156112c35780601f1061129a576101008083540402835291602001916112c3565b820191905f5260205f20905b8154815290600101906020018083116112a657829003601f168201915b505050505090505f81511161130d576040517f08c379a000000000000000000000000000000000000000000000000000000000815260040161130490612925565b60405180910390fd5b6113195f5f1b336110a0565b1561138757600160075f8581526020019081526020015f205f6101000a81548160ff0219169083151502179055507fe102c45e62ee0cd148c4d8a1e666e13fa6e78079f1e2fdee42f6083228727b0d81845f60405161137a9392919061297c565b60405180910390a1611393565b61139281845f610a8a565b5b836005826040516113a491906121f9565b90815260200160405180910390206002018190555060019150509392505050565b7f000000000000000000000000000000000000000000000000000000000000000081565b7f5618c334698f0cb973068ee356c82fbd6757346e552a7166388299bacded3bc6611413816116b2565b6040518060a0016040528085858080601f0160208091040260200160405190810160405280939291908181526020018383808284375f81840152601f19601f8201169050808301925050505050505081526020018373ffffffffffffffffffffffffffffffffffffffff16815260200161271081526020015f81526020015f1515815250600587876040516114a99291906129dc565b90815260200160405180910390205f820151815f0190816114ca91906129f4565b506020820151816001015f6101000a81548173ffffffffffffffffffffffffffffffffffffffff021916908373ffffffffffffffffffffffffffffffffffffffff16021790555060408201518160020155606082015181600301556080820151816004015f6101000a81548160ff021916908315150217905550905050858560065f8a81526020019081526020015f2091826115679291906124c6565b5050505050505050565b611e7881565b61158082610851565b611589816116b2565b61159383836117b6565b50505050565b600380546115a6906122f6565b80601f01602080910402602001604051908101604052809291908181526020018280546115d2906122f6565b801561161d5780601f106115f45761010080835404028352916020019161161d565b820191905f5260205f20905b81548152906001019060200180831161160057829003601f168201915b505050505081565b7f000000000000000000000000000000000000000000000000000000000000000081565b5f7f01ffc9a7000000000000000000000000000000000000000000000000000000007bffffffffffffffffffffffffffffffffffffffffffffffffffffffff1916827bffffffffffffffffffffffffffffffffffffffffffffffffffffffff1916149050919050565b6116c3816116be6117af565b6119c4565b50565b5f6116d183836110a0565b6117a55760015f5f8581526020019081526020015f205f015f8473ffffffffffffffffffffffffffffffffffffffff1673ffffffffffffffffffffffffffffffffffffffff1681526020019081526020015f205f6101000a81548160ff0219169083151502179055506117426117af565b73ffffffffffffffffffffffffffffffffffffffff168273ffffffffffffffffffffffffffffffffffffffff16847f2f8788117e7eff1d82e926ec794901d17c78024a50270940304540a733656f0d60405160405180910390a4600190506117a9565b5f90505b92915050565b5f33905090565b5f6117c183836110a0565b15611895575f5f5f8581526020019081526020015f205f015f8473ffffffffffffffffffffffffffffffffffffffff1673ffffffffffffffffffffffffffffffffffffffff1681526020019081526020015f205f6101000a81548160ff0219169083151502179055506118326117af565b73ffffffffffffffffffffffffffffffffffffffff168273ffffffffffffffffffffffffffffffffffffffff16847ff6391f5c32d9c69d2a47ea670b442974b53935d1edc7fd64eb21e047a839171b60405160405180910390a460019050611899565b5f90505b92915050565b5f73ffffffffffffffffffffffffffffffffffffffff168273ffffffffffffffffffffffffffffffffffffffff1614806118d857505f81145b6119bf575f60025f9054906101000a900473ffffffffffffffffffffffffffffffffffffffff1673ffffffffffffffffffffffffffffffffffffffff166323b872dd8585856040518463ffffffff1660e01b815260040161193b93929190612ac3565b6020604051808303815f875af1158015611957573d5f5f3e3d5ffd5b505050506040513d601f19601f8201168201806040525081019061197b9190612b22565b9050806119bd576040517f08c379a00000000000000000000000000000000000000000000000000000000081526004016119b490612b97565b60405180910390fd5b505b505050565b6119ce82826110a0565b611a115780826040517fe2517d3f000000000000000000000000000000000000000000000000000000008152600401611a08929190612839565b60405180910390fd5b5050565b5f604051905090565b5f5ffd5b5f5ffd5b5f7fffffffff0000000000000000000000000000000000000000000000000000000082169050919050565b611a5a81611a26565b8114611a64575f5ffd5b50565b5f81359050611a7581611a51565b92915050565b5f60208284031215611a9057611a8f611a1e565b5b5f611a9d84828501611a67565b91505092915050565b5f8115159050919050565b611aba81611aa6565b82525050565b5f602082019050611ad35f830184611ab1565b92915050565b5f5ffd5b5f5ffd5b5f601f19601f8301169050919050565b7f4e487b71000000000000000000000000000000000000000000000000000000005f52604160045260245ffd5b611b2782611ae1565b810181811067ffffffffffffffff82111715611b4657611b45611af1565b5b80604052505050565b5f611b58611a15565b9050611b648282611b1e565b919050565b5f67ffffffffffffffff821115611b8357611b82611af1565b5b611b8c82611ae1565b9050602081019050919050565b828183375f83830152505050565b5f611bb9611bb484611b69565b611b4f565b905082815260208101848484011115611bd557611bd4611add565b5b611be0848285611b99565b509392505050565b5f82601f830112611bfc57611bfb611ad9565b5b8135611c0c848260208601611ba7565b91505092915050565b5f819050919050565b611c2781611c15565b8114611c31575f5ffd5b50565b5f81359050611c4281611c1e565b92915050565b5f5f60408385031215611c5e57611c5d611a1e565b5b5f83013567ffffffffffffffff811115611c7b57611c7a611a22565b5b611c8785828601611be8565b9250506020611c9885828601611c34565b9150509250929050565b5f819050919050565b611cb481611ca2565b82525050565b5f602082019050611ccd5f830184611cab565b92915050565b5f5ffd5b5f5ffd5b5f5f83601f840112611cf057611cef611ad9565b5b8235905067ffffffffffffffff811115611d0d57611d0c611cd3565b5b602083019150836001820283011115611d2957611d28611cd7565b5b9250929050565b5f5f5f5f60408587031215611d4857611d47611a1e565b5b5f85013567ffffffffffffffff811115611d6557611d64611a22565b5b611d7187828801611cdb565b9450945050602085013567ffffffffffffffff811115611d9457611d93611a22565b5b611da087828801611cdb565b925092505092959194509250565b5f73ffffffffffffffffffffffffffffffffffffffff82169050919050565b5f611dd782611dae565b9050919050565b611de781611dcd565b8114611df1575f5ffd5b50565b5f81359050611e0281611dde565b92915050565b5f60208284031215611e1d57611e1c611a1e565b5b5f611e2a84828501611df4565b91505092915050565b611e3c81611c15565b82525050565b5f602082019050611e555f830184611e33565b92915050565b611e6481611ca2565b8114611e6e575f5ffd5b50565b5f81359050611e7f81611e5b565b92915050565b5f60208284031215611e9a57611e99611a1e565b5b5f611ea784828501611e71565b91505092915050565b5f5f60408385031215611ec657611ec5611a1e565b5b5f611ed385828601611e71565b9250506020611ee485828601611df4565b9150509250929050565b5f60208284031215611f0357611f02611a1e565b5b5f611f1084828501611c34565b91505092915050565b5f81519050919050565b5f82825260208201905092915050565b8281835e5f83830152505050565b5f611f4b82611f19565b611f558185611f23565b9350611f65818560208601611f33565b611f6e81611ae1565b840191505092915050565b5f6020820190508181035f830152611f918184611f41565b905092915050565b611fa281611dcd565b82525050565b5f602082019050611fbb5f830184611f99565b92915050565b5f5f5f60608486031215611fd857611fd7611a1e565b5b5f84013567ffffffffffffffff811115611ff557611ff4611a22565b5b61200186828701611be8565b935050602061201286828701611e71565b925050604061202386828701611df4565b9150509250925092565b5f6020828403121561204257612041611a1e565b5b5f82013567ffffffffffffffff81111561205f5761205e611a22565b5b61206b84828501611be8565b91505092915050565b5f60a0820190508181035f83015261208c8188611f41565b905061209b6020830187611f99565b6120a86040830186611e33565b6120b56060830185611e33565b6120c26080830184611ab1565b9695505050505050565b5f5f5f606084860312156120e3576120e2611a1e565b5b5f6120f086828701611c34565b935050602061210186828701611c34565b925050604061211286828701611e71565b9150509250925092565b5f5f5f5f5f5f6080878903121561213657612135611a1e565b5b5f61214389828a01611c34565b965050602087013567ffffffffffffffff81111561216457612163611a22565b5b61217089828a01611cdb565b9550955050604087013567ffffffffffffffff81111561219357612192611a22565b5b61219f89828a01611cdb565b935093505060606121b289828a01611df4565b9150509295509295509295565b5f81905092915050565b5f6121d382611f19565b6121dd81856121bf565b93506121ed818560208601611f33565b80840191505092915050565b5f61220482846121c9565b915081905092915050565b7f4e487b71000000000000000000000000000000000000000000000000000000005f52601160045260245ffd5b5f61224682611c15565b91507fffffffffffffffffffffffffffffffffffffffffffffffffffffffffffffffff82036122785761227761220f565b5b600182019050919050565b5f6060820190508181035f83015261229b8186611f41565b90506122aa6020830185611e33565b6122b76040830184611e33565b949350505050565b5f82905092915050565b7f4e487b71000000000000000000000000000000000000000000000000000000005f52602260045260245ffd5b5f600282049050600182168061230d57607f821691505b6020821081036123205761231f6122c9565b5b50919050565b5f819050815f5260205f209050919050565b5f6020601f8301049050919050565b5f82821b905092915050565b5f600883026123827fffffffffffffffffffffffffffffffffffffffffffffffffffffffffffffffff82612347565b61238c8683612347565b95508019841693508086168417925050509392505050565b5f819050919050565b5f6123c76123c26123bd84611c15565b6123a4565b611c15565b9050919050565b5f819050919050565b6123e0836123ad565b6123f46123ec826123ce565b848454612353565b825550505050565b5f5f905090565b61240b6123fc565b6124168184846123d7565b505050565b5b818110156124395761242e5f82612403565b60018101905061241c565b5050565b601f82111561247e5761244f81612326565b61245884612338565b81016020851015612467578190505b61247b61247385612338565b83018261241b565b50505b505050565b5f82821c905092915050565b5f61249e5f1984600802612483565b1980831691505092915050565b5f6124b6838361248f565b9150826002028217905092915050565b6124d083836122bf565b67ffffffffffffffff8111156124e9576124e8611af1565b5b6124f382546122f6565b6124fe82828561243d565b5f601f83116001811461252b575f8415612519578287013590505b61252385826124ab565b86555061258a565b601f19841661253986612326565b5f5b828110156125605784890135825560018201915060208501945060208101905061253b565b8683101561257d5784890135612579601f89168261248f565b8355505b6001600288020188555050505b50505050505050565b7f4d415354455200000000000000000000000000000000000000000000000000005f82015250565b5f6125c7600683611f23565b91506125d282612593565b602082019050919050565b5f6125e88385611f23565b93506125f5838584611b99565b6125fe83611ae1565b840190509392505050565b5f6060820190508181035f830152612620816125bb565b905081810360208301526126358185876125dd565b90506126446040830184611f99565b949350505050565b7f4c6f676963204f62736f6c6574653a203320537472696b6573207265616368655f8201527f6400000000000000000000000000000000000000000000000000000000000000602082015250565b5f6126a6602183611f23565b91506126b18261264c565b604082019050919050565b5f6020820190508181035f8301526126d38161269a565b9050919050565b7f446f75626c652d436c61696d2050726576656e74696f6e3a204861736820616c5f8201527f7265616479207573656400000000000000000000000000000000000000000000602082015250565b5f612734602a83611f23565b915061273f826126da565b604082019050919050565b5f6020820190508181035f83015261276181612728565b9050919050565b5f61277282611c15565b915061277d83611c15565b925082820261278b81611c15565b915082820484148315176127a2576127a161220f565b5b5092915050565b7f4e487b71000000000000000000000000000000000000000000000000000000005f52601260045260245ffd5b5f6127e082611c15565b91506127eb83611c15565b9250826127fb576127fa6127a9565b5b828204905092915050565b5f61281082611c15565b915061281b83611c15565b92508282039050818111156128335761283261220f565b5b92915050565b5f60408201905061284c5f830185611f99565b6128596020830184611cab565b9392505050565b5f6060820190508181035f8301526128788186611f41565b90506128876020830185611cab565b6128946040830184611e33565b949350505050565b5f815190506128aa81611c1e565b92915050565b5f602082840312156128c5576128c4611a1e565b5b5f6128d28482850161289c565b91505092915050565b7f49445f4e4f545f524547495354455245440000000000000000000000000000005f82015250565b5f61290f601183611f23565b915061291a826128db565b602082019050919050565b5f6020820190508181035f83015261293c81612903565b9050919050565b5f819050919050565b5f61296661296161295c84612943565b6123a4565b611c15565b9050919050565b6129768161294c565b82525050565b5f6060820190508181035f8301526129948186611f41565b90506129a36020830185611cab565b6129b0604083018461296d565b949350505050565b5f6129c383856121bf565b93506129d0838584611b99565b82840190509392505050565b5f6129e88284866129b8565b91508190509392505050565b6129fd82611f19565b67ffffffffffffffff811115612a1657612a15611af1565b5b612a2082546122f6565b612a2b82828561243d565b5f60209050601f831160018114612a5c575f8415612a4a578287015190505b612a5485826124ab565b865550612abb565b601f198416612a6a86612326565b5f5b82811015612a9157848901518255600182019150602085019450602081019050612a6c565b86831015612aae5784890151612aaa601f89168261248f565b8355505b6001600288020188555050505b505050505050565b5f606082019050612ad65f830186611f99565b612ae36020830185611f99565b612af06040830184611e33565b949350505050565b612b0181611aa6565b8114612b0b575f5ffd5b50565b5f81519050612b1c81612af8565b92915050565b5f60208284031215612b3757612b36611a1e565b5b5f612b4484828501612b0e565b91505092915050565b7f53594e4c205472616e73666572204661696c65640000000000000000000000005f82015250565b5f612b81601483611f23565b9150612b8c82612b4d565b602082019050919050565b5f6020820190508181035f830152612bae81612b75565b905091905056fea2646970667358221220a9d81010a6983e34fbb0eb8b44796a6671d274d6d1e1beea69392d5a04b10d8064736f6c634300081f0033","linkReferences":{}},"methodIdentifiers":{"BOOTSTRAP_FEE_SYNL()":"3c1e30d8","BPS_FLOOR()":"d005936a","CERTIFICATION_FEE_USD()":"a8741dd5","DEFAULT_ADMIN_ROLE()":"a217fddf","FOUNDER_VAULT()":"e6d0697d","GROWTH_CONTROLLER_ROLE()":"11989509","TRANSITION_WINDOW()":"2184f977","auditSweepArweaveId()":"694ef272","calculateSynlFee()":"86571615","deploymentTimestamp()":"bfc12c05","executeAndCertify(string,bytes32,address)":"79d384b5","executedHashes(bytes32)":"260d711e","getRoleAdmin(bytes32)":"248a9ca3","grantRole(bytes32,address)":"2f2ff15d","hasRole(bytes32,address)":"91d14854","idToName(uint256)":"364410b3","issueStrike(string,uint256)":"0a3c4519","oracleAddress()":"a89ae4ba","recordPulse(uint256,uint256,bytes32)":"bcb7ec0e","referrers(address)":"4a3b68cc","registerAtomic(uint256,string,string,address)":"c7d9818a","registry(string)":"92a296c9","renounceRole(bytes32,address)":"36568abe","revokeRole(bytes32,address)":"d547741f","sovereignEngineArweaveId()":"d58fec6e","supportsInterface(bytes4)":"01ffc9a7","synlTokenAddress()":"8c4f40c0","updateOracle(address)":"1cb44dfc","upgradeEternalLogic(string,string)":"14473573"},"id":26}